:020000040800F2
:10000000E0070020F90200081B300008D72E000886
:10001000193000084F1D00088B3700080000000051
:10002000000000000000000000000000D1320008C5
:10003000511D0008000000001D300008D3320008E8
:100040001303000813030008130300081303000838
:100050001303000813030008130300081303000828
:100060001303000813030008130300081303000818
:100070001303000813030008130300081303000808
:1000800013030008130300081303000813030008F8
:1000900013030008130300081303000813030008E8
:1000A00013030008130300081303000813030008D8
:1000B00013030008130300081303000813030008C8
:1000C00013030008130300081303000813030008B8
:1000D00013030008130300081303000813030008A8
:1000E0001303000813030008130300081303000898
:1000F0001303000813030008130300081303000888
:100100001303000813030008130300081303000877
:100110001303000813030008130300081303000867
:100120001303000813030008130300081303000857
:100130001303000813030008130300081303000847
:100140001303000813030008130300081303000837
:100150001303000813030008130300081303000827
:100160001303000813030008130300081303000817
:100170001303000813030008130300080000000025
:1001800013030008130300081303000813030008F7
:1001900013030008130300081303000813030008E7
:1001A00013030008130300081303000800F002F80B
:1001B00000F092F80AA090E8000C82448344AAF16F
:1001C0000107DA4501D100F087F8AFF2090EBAE86D
:1001D0000F0013F0010F18BFFB1A43F0010318477B
:1001E0007838000098380000103A24BF78C878C1E9
:1001F000FAD8520724BF30C830C144BF04680C602D
:10020000704700000023002400250026103A28BF74
:1002100078C1FBD8520728BF30C148BF0B60704778
:100220006E2900F0FB81702900F04183662903F0FC
:100230006C83652903F06983672903F0668361296C
:1002400003F0658303681B0A28BF41F08001692918
:1002500000F0A881642900F0A581752900F0A28131
:100260006F2900F0CE82782900F00D83E92900F093
:100270006982E42900F06682F52900F06382EF29A3
:1002800000F0CB82F82900F00C830368DB0928BF5B
:1002900041F08001632901F01880732901F01D806D
:1002A000E32901F02880F32901F02D800020704718
:1002B0001FB503F025FB01F077F8040000200021B2
:1002C00003F008FB401C60600020002103F0ECFA02
:1002D000E0601FBD10B510BD01F039F81146FFF701
:1002E000E7FF03F083FA01F015F903B4FFF7F2FF1B
:1002F00003BC01F05DF90000094880470948004748
:10030000FEE7FEE7FEE7FEE7FEE7FEE7FEE7FEE7C5
:10031000FEE7FEE704480549054A064B7047000022
:1003200049330008AD010008E0010020E00700208B
:10033000E0030020E003002053EA020C00F0698093
:100340002DE9F04B4FF00006002B1FBFB3FA83F5E9
:1003500003FA05F424FA05F65E4012BF1643B2FA1A
:1003600082F502FA05F4C5F120051EBF22FA05FC4C
:1003700044EA0C04203556EA044C4FEA144418BFF2
:10038000641C4FF000084FF00009904271EB030C21
:1003900039D3002919BFB1FA81F701FA07F6B0FA8B
:1003A00080F700FA07F6C7F120071EBF20FA07FC06
:1003B00046EA0C062037B6FBF4FCA7EB0507103F16
:1003C00007F01F0BCBF120060CFA0BFB2CFA06F6FC
:1003D00044BFB3460026202FA4BF5E464FF0000B5B
:1003E0005BEA060C08BF4FF0010B19EB0B09ABFBE6
:1003F000027C48EB0608C01B06FB02CC0BFB03CCBF
:1004000071EB0C01C1E70B46024641464846BDE888
:10041000F08B13B54FF000004FF00001AFF30080F8
:10042000BDE81C40704700001CB50C46064B7B44E1
:1004300069460090204600F00AF90446002069460B
:1004400000F018F920461CBD4302000010B5431C03
:1004500002E010F8011B71B18107FAD14FF00132AF
:1004600002C88C1A8C4314EAC211F9D0C01A0A06C9
:1004700003D0C01E10BDC01A10BD0A0401D0801EDA
:1004800010BD0902FCD0401E10BD4FF0000200B5A7
:10049000134694469646203922BFA0E80C50A0E8A7
:1004A0000C50B1F12001BFF4F7AF090728BFA0E855
:1004B0000C5048BF0CC05DF804EB890028BF40F821
:1004C000042B08BF704748BF20F8022B11F0804F63
:1004D00018BF00F8012B704770477047704770B520
:1004E000044685690068C10601D5302600E0202653
:1004F000C00707D070BDD4E9012130469047206A7B
:10050000401C20626D1EF6D570BD70B5044685692D
:100510000078C00707D170BDD4E9012120209047A1
:10052000206A401C20626D1EF6D570BD09684A0520
:1005300001D540B27047C905FCD500B270470968C3
:100540004A0501D5C0B27047C905FCD580B27047D5
:1005500070B50C460546012A05D02878800600D5DE
:10056000EA69002302E0012305E05B1C934202D20A
:10057000E05C0028F9D1A869E618C01AA861286AC9
:10058000184428622846FFF7AAFF04E0D5E90121B4
:1005900014F8010B9047B442F8D32846FFF7B5FF93
:1005A00070BD00002DE9F041064600241068752951
:1005B000314616A510D0FFF7B9FF002802DA4042F5
:1005C00013A507E031688A0701D512A502E04907A3
:1005D00004D511A5012401E0FFF7B1FF00210A2293
:1005E00006F1240709E0B0FBF2FCB0FBF2F302FBDA
:1005F0001C00303078541846491C0028F3D123469B
:100600002A463046BDE8F04100F068BA000000001C
:100610002D0000002B00000020000000116802687F
:10062000006A530501D508700AE0D30501D508809A
:1006300006E0130603D5C217C1E9000200E0086016
:100640000120704701694A1C02610878704700B5B3
:100650008FB0CDE901310021059105497944CDE9FB
:1006600003101146684600F02DF90FB000BD0000E0
:10067000E5FFFFFF0A6802F8010B0A6070470000FF
:100680002DE9FF5F15468A460446DFF8AC80F84442
:100690000027D8E900103E46CDE9001010E03AF8F6
:1006A00016106A4602A800F032FE411C07D02178DD
:1006B000890603D5E269391891420DD80744761CA2
:1006C0002078800602D5E069B84205DDAE42E6DB5F
:1006D0003AF816000028E2D1A069C01BA0612046AC
:1006E000FFF7FDFED8E90010CDE90010002017E06B
:1006F0003AF818106A4602A800F009FEB0F1FF3F70
:1007000081460BD000250DF1080B05E0D4E901214D
:100710001BF8050090476D1C4D45F7D308F101000B
:10072000B0428046E4DB206A384420622046FFF76E
:10073000ECFE00F003B80000CA3200003FBCBDE888
:10074000C09F00002DE9F0418046D21D22F0070233
:100750000025D2E90002F52915A614D0011E72F178
:10076000000106DA0023D0EB030063EB020211A6BE
:1007700008E0D8F800108B0701D50FA602E0490762
:1007800001D50EA601251146002408F1240704E036
:1007900000F05FF930323A55641C50EA0102F7D19B
:1007A0002B46324621464046BDE8F04100F096B95E
:1007B000000000002D0000002B00000020000000C1
:1007C00030B4002100F1240408E002F00705D2084B
:1007D000303542EA4372DB086554491C52EA03058E
:1007E000F3D10468002310A2250707D5A40600D47E
:1007F00021B1C46901230DA2641EC46130BC00F0A4
:100800006DB910B5044621461068FFF798FE024600
:100810002046BDE810400023D2E7D21D22F0070198
:10082000D1E90023CCE70000000000003000000008
:10083000F0B40D460188090502D5214C7C4402E044
:100840001F4C7C440E34002100F1240608E002F025
:100850000F071209E75D42EA03721B097754491C2E
:1008600052EA0307F3D102780023120704D5702D52
:1008700006D009B1022311342246F0BC00F02EB993
:1008800001231034F8E770B504460D462146106880
:10089000FFF755FE024629462046BDE8704000237A
:1008A000C6E7D21D22F00703D3E90023C0E703689F
:1008B000126843F0200303600823C3610023B7E7F5
:1008C000243100002DE9F05F894604464FF0000A0C
:1008D000DFF874B1FB44C0F820A02046E1688847E7
:1008E000002874D0252806D0D4E901219047206A39
:1008F000401C2062F1E700265F462046E1688847F9
:100900002028054607DB312D05D2781910F8200C78
:1009100008B10643F1E7B00701D526F00406C4F894
:100920001CA00027C4F818A02A2D09D0284602F0E0
:1009300055FF38B304EB8708303DC8F8185019E06C
:1009400059F8041B204604EB87029161E16888474F
:10095000012F054618D1E069002820DA26F020068C
:100960001DE0D8F8180000EB800005EB400030389F
:10097000C8F818002046E1688847054602F02EFFB7
:100980000028EED1012F0AD02E2D08D12046E16893
:1009900088477F1C0546022F46F02006C4DBA0696D
:1009A000002803DA404246F00106A061F00701D0BA
:1009B00026F010066C2D0BD0682D09D04C2D39D0A7
:1009C0006A2D35D0742D35D07A2D33D016E038E02D
:1009D000E1682F4620468847B842054609D16C2F6A
:1009E00026D04FF48060E1680643204688470546DC
:1009F00004E06C2F1AD04FF4807006430DB3A5F1BC
:100A00004100192802D8203546F400664A46294696
:100A1000204626604E46FFF703FC80B101280BD02C
:100A2000F61D26F0070000F1080956E74020E4E72C
:100A30008020D8E70020D6E706F104094DE72846D4
:100A400052E7206A00F002B8B430000030BCBDE8C4
:100A5000C09F30B5B0F10A024FEA900E71F1000369
:100A60004EEA817EB0EB0E0061EB91014FEA101E61
:100A70004EEA017E10EB0E0041EB11114FEA102EF1
:100A80004EEA016E10EB0E0041EB11214FEA104EC1
:100A90004EEA014E10EB0E0041EB1141401841F1BE
:100AA00000014FEAD00040EA41704FEAD10110EB5B
:100AB00080054FEA810444EA907444EB01046D1907
:100AC00044EB0404521BA3414FF0000348BF0A3219
:100AD00000D530BD401C41F1000130BD2DE9F0478B
:100AE0000D4699469246044600F12408016888069E
:100AF00004D5E06921F01001216000E00120A84246
:100B000001DD471B00E00027A1697A1902EB09000B
:100B1000081AA0612078C00602D42046FFF7DFFC47
:100B2000002608E0D4E901211AF806009047206A5F
:100B3000401C761C20624E45F4DB2078C0060AD5A6
:100B40002046FFF7CCFC06E0D4E901213020904795
:100B5000206A401C2062381EA7F10107F4DC07E080
:100B6000D4E9012118F805009047206A401C206252
:100B7000281EA5F10105F3DC2046FFF7C6FC20780E
:100B8000000602D50220BDE8F0870120FBE7704790
:100B90002DE9FF4F0C461E464FF0FF378BB0D2E9D0
:100BA0000001DDF860800A908A46C1F30A5505B954
:100BB0003D46002108464FF00000BAF1000F00F456
:100BC000400005DA00EB80004FF4400101EA5000DC
:100BD0004FEA9059B9F1010F00DDB9460A9850EA81
:100BE0004A000ED044F61050A5F2FF3545432F14AD
:100BF000B8F1000F1ED07542291E1EDDC9F100029A
:100C00001CE0B8F1010F4FF0000001D0302103E0EB
:100C1000F24305E02154401CB042FBDB3046002289
:100C2000002121540B99C1F80880C1E900200FB0C0
:100C300000F0BCB9BD1B6D1CDEE74A4600DA694214
:100C400006A800F0F5FB06AB93E8070003AB83E8CA
:100C5000070050460A9900F0B2FC8DE80700A0F5A5
:100C600000501F3800900398002D0ADD42F21F014A
:100C70004A460844002303A90390684600F01BFF7E
:100C800009E0A0F500504A461F38002303A903904D
:100C9000684600F025FF8DE807000004000C03D033
:100CA0004FF0FF30410800E01046B8F1000F03D0CC
:100CB0000022009215461EE0751E05D4FFF7C9FEFE
:100CC000303262556D1EF9D5B3460122084302D079
:100CD00000227F1C04E02078302801D100227F1EF2
:100CE000002A099784D01DE0112D07DAFFF7B1FE25
:100CF000303262556D1C50EA0102F5D1084302D032
:100D00000098C8B10EE00021681E05E0235C625C1B
:100D100063542254401E491C8142F7DBAB46A81B9A
:100D2000401E0990002004F80B000B98099AC0F8A7
:100D30000880C0E9002B7AE711264FF0000857E73A
:100D40002DE9F04F88460446D21D22F0070191B0EC
:100D5000D1E90001CDE90A0102F018FD02460B9825
:100D6000C00F01D02D2007E02068810701D52B207E
:100D700002E0202101EAC000032A099001D0072ADD
:100D800005DB03464146204600F012FB0BE12078CC
:100D9000800601D5E06900E00620B8F1650F8146C4
:100DA00006D0B8F1660F18D0B8F1670F70D131E0F6
:100DB0000020B9F1110F009001DB112301E009F1CE
:100DC00001030AAA01A90CA8FFF7E2FEDDE90C70F5
:100DD000002609F10105834647E001204B460090BB
:100DE0004FF000470AAA01A90CA8FFF7D1FEDDE9E0
:100DF0000DB00C995D46002610B909F101000D18DF
:100E0000B9EB050003D4C0F1FF3609F10105A5EBEC
:100E100009002BE0B9F1010F01DA4FF001090020C0
:100E2000B9F1110F0090484601DD112300E003469F
:100E30000AAA01A90CA8FFF7ABFEDDE90C704D462C
:100E400000268346207800070AD4AB4500DA5D46C9
:100E500001A8012D04DD411911F8011C302907D02A
:100E60004F4502DA17F1040F04DA012082460FE041
:100E70006D1EEEE7002F02DCED1B3E4403E0781C04
:100E8000A84200DD7D1CB81B00F1010A4FF00047AD
:100E90002078000703D4AA4501DB4FF0FF3A002178
:100EA000B7F1004F0DF143088DF8431024D0022014
:100EB0002B23002F01DA7F422D230A21021EA0F1ED
:100EC000010000DC5FB197FBF1FC97FBF1F201FB45
:100ED0001C7C17460CF1300C08F801CDEEE7A8F1A8
:100EE000010003702188090501D5452100E0652135
:100EF000A0F1010800F8011C09980FA9A1EB08074F
:100F0000FF1D00B10120411901EBEA70A1693844CD
:100F1000081A401EA0612078C00602D42046FFF7C0
:100F2000DEFA099828B1D4E901219047206A401CD3
:100F300020622078C00622D52046FFF7D0FA1EE0B6
:100F4000002E04DBB34502DD01A8805D00E0302007
:100F5000D4E901219047206A401C2062761CAAF146
:100F600001005FEA000A0AD100F01EFAC0680168B9
:100F7000405CD4E901219047206A401C2062281E71
:100F8000A5F10105DCDC07E0D4E9012118F8010B2B
:100F90009047206A401C2062381EA7F10107F3DC4D
:100FA0002046FFF7B2FA032011B041E630BCBDE89D
:100FB000C08F00002DE9F04F04460D46D21D22F0EF
:100FC000070089B0D0E900974846394602F0DEFBB9
:100FD0000246F80F01D02D2307E02068810701D5D4
:100FE0002B2302E0202101EAC0038DF820300BB151
:100FF000012000E00020032A824601D0072A04DBFA
:101000002946204600F0D4F93FE12078800601D43B
:101010000D2500E0E569C7F30A560D2D49DA0021D8
:101020004FEA175B08464FF00000002F00F4400025
:1010300007DA00EB80004FF4400100EBD07001EACA
:1010400060008115012901DD4FF0FF3100224FEAD8
:10105000850CBCF1180F06D31346ACF118004FF005
:101060008052C24003E04FF4801323FA0CF30CF1DA
:101070000C0CBCF1200F04D3ACF1200C09FA0CF0DD
:1010800001E007FA0CF000294FF0004801DD18B923
:101090000FE00ED140450CD319EB02095F4121B995
:1010A000404502D19F4329EA0209BBEB175F00D0FC
:1010B000761C2088000502D57B48784402E07A48F7
:1010C0007844193808AA302302F80A30037C0AF160
:1010D0000101002E0AF1020A53546A4602DC4FF065
:1010E000300101E04FF031014FF001088DF80010A0
:1010F00002D0A6F2FF3603E059EA470100D06B4E5A
:10110000002D02DC2178090704D54FF002082E21BA
:101110008DF80110C44600210BE0C7F303433F01E3
:10112000C35C491C6D1E02F80830052908F101084E
:1011300001DA002DF1DC00210CE000EB1973491CF1
:101140001B786D1E082902F808304FEA091908F1CA
:10115000010801DA002DF0DC21688B0602D516E0CB
:10116000A8F10108E04505DD02EB080313F8013C96
:10117000302BF5D0B8F1000F09DD02EB080313F8AE
:10118000013C2E2B03D1090701D4A8F10108002D41
:1011900005DD3E2102F808106D1E08F10108407CB3
:1011A000002E02F8080008F1010804DA2D2076422A
:1011B00002F8080002E02B2002F808000A214FF490
:1011C0007A70864208F101080BDB96FBF0F33033AE
:1011D00002F8083096FBF0F308F1010800FB1366F3
:1011E00001E0642E0CDB642096FBF0F3303302F850
:1011F000083096FBF0F308F1010800FB136601E0EC
:101200000A2E06DB96FBF1F0303002F8080008F1F8
:10121000010896FBF1F001FB1060303002F8080085
:10122000A16908F1010808EB050202EB0A00081A9F
:10123000A0612078C00602D42046FFF750F9216A49
:1012400008AE01EB0A00206204E0D4E9012116F89F
:10125000010B9047BAF1010AF7D22078C00602D5F7
:101260002046FFF73CF96E4609E016F8010B3E28D0
:101270000FD0D4E901219047206A401C2062B8F1C8
:101280000108F2D22046FFF740F909B0032000F030
:101290000FB8206A2844206203E0D4E901213020FD
:1012A00090476D1EEBD3F8E7F228000002FCFFFF29
:1012B00030BCBDE8C08F10B5436913B1AFF30080F7
:1012C00001E0FFF745F9012010BD127800F124017B
:1012D0000A7000224A700122EDE711684FF0FF32D8
:1012E000E9E710B5436913B1AFF3008001E0FFF700
:1012F000C7F9012010BD128800F124018284002268
:10130000C2840122EDE711684FF0FF32E9E770B5C2
:1013100016460C46054600F03FF8036893F80101B5
:10132000012806D0FF2C0FD8185D68B101202C7061
:1013300070BDD3F807013246214603F20713034478
:101340002846BDE8704018474FF0FF3070BD754625
:1013500000F0EAF8AE4605006946534620F0070063
:10136000854618B020B5FEF7D5FFBDE820404FF008
:1013700000064FF000074FF000084FF0000B21F07F
:101380000701AC46ACE8C009ACE8C009ACE8C0094C
:10139000ACE8C0098D46704710B500F005F8001D97
:1013A00010BD00BF31250000004870479C0100209F
:1013B0002DE9F0411F46044603260168072A01F47F
:1013C000006004DB08B116A505E016A503E008B12E
:1013D00015A500E015A521F010002060A069C01E31
:1013E000A0610FB1401EA0612046FFF778F84FB111
:1013F000D4E9012138469047206A401C2062C01C75
:10140000206206E0206AFAE7D4E9012115F8010B11
:101410009047761EF8D22046FFF777F8BDE8F081B6
:101420004E414E006E616E00494E4600696E660088
:101430002DE9F047814616468AB0354878440DC8F4
:101440008DE80D0032487844801C03AC0DC884E858
:101450000D0041F69B300844372190FBF1F290FBE0
:10146000F1F5A5F1800501FB12041B3C02D5644295
:10147000012000E00020DFF898A080460027FA4411
:10148000AAF1BE0A0EE0E0070AD03246684607EB32
:10149000470101230AEB810100F022FB8DE80700E0
:1014A00064107F1C002CEED1194F7F44AE3F19E031
:1014B000E80715D007EB04100DF1180A90E80E00AC
:1014C0008AE80E00C068F04201D1981908903246AF
:1014D000012306A903A800F003FB03AB83E8070080
:1014E0006D10641C002DE3D14FF0010332466946B4
:1014F000B8F1000F03A802D000F0DDFA01E000F01F
:10150000EFFAC9E90001C9F808200AB0BDE8F08780
:101510000026000010B50446AFF300802046BDE869
:101520001040FEF7E2BE0000004870477C0100203A
:101530004FF0013C50F8042B51F8043B9A4221D162
:10154000A2EB0C03934313EACC1317D150F8042BEE
:1015500051F8043B9A4215D1A2EB0C03934313EAD2
:10156000CC130BD150F8042B51F8043B9A4209D10B
:10157000A2EB0C03934313EACC13DBD04FF0000033
:10158000704700BFD01A01BAB1FA81F101F0180119
:1015900022FA01F0CB40C1F12001DBB2C0B2C01A87
:1015A0002CFA01F3D11A914311EAC311E6D1704725
:1015B00001491820ABBEFEE72600020070475FEA33
:1015C000400C08BF91F0000F4FEA8C234FEAC12274
:1015D00043EA51514FEA1C5018BF00F5F0404FEA62
:1015E000300018BF41F000415FEA6C5C00F02980D8
:1015F000BCF1FF3F08BF40F080407047130C06BFAE
:1016000012044FF0100C4FF0000C130E04BF120226
:101610000CF1080C130F04BF12010CF1040C930F12
:1016200004BF92000CF1020CD30F04BF52000CF166
:10163000010C11464FF00002A0F11F00A0EB0C00BE
:10164000704711F0004F08BF704731F000413FF480
:10165000D5AF0B0C06BF09044FF0100C4FF0000C77
:101660000B0E04BF09020CF1080C0B0F04BF09019B
:101670000CF1040C8B0F04BF89000CF1020CCB0F92
:1016800004BF49000CF1010CCCF12003A0EB0C00CD
:1016900022FA03F302FA0CF241EA030100F101001D
:1016A000704720F07F4C80EA030023F07F47ACEBCB
:1016B000070303F57C5300F0004003F1FF032DE91D
:1016C00080494FEA154B09B44FEA144325EA0B4E03
:1016D00024EA03480FF2042606EB132749083E7854
:1016E0005FEA320203FB0667C7F5000707FB06F651
:1016F0004FEA54374FEAD64606F1020607FB066C5E
:10170000CCF1005C4FEA1C472CEA074C07FB06F4BF
:101710000CFB06F504EB15464FEA961634BF002085
:101720004FF000404FEAD13706FB07FC4FEA1C4C54
:101730000CFB0BF7D21B03FB0CF761EB07010CFB57
:101740000EF7B0EB074072EB17420CFB08F734BF03
:10175000A2EB0742B2EB074261EB17414FEA0C44A0
:101760004FEA910706FB07FC4FEA1C4C0CFB0BF7FA
:10177000B0EBC74072EB573203FB0CF734BFA2EB60
:10178000C742B2EBC74261EB57310CFB0EF7B0EB2F
:10179000C70072EB57720CFB08F734BFA2EBC7020D
:1017A000B2EBC70261EB5771039F4FEA816141EAD7
:1017B000921104EBCC044FEAD1374FEA826206FB68
:1017C00007FC42EA90124FEA80604FEA1C4C0CFB87
:1017D0000BF7D21B03FB0CF761EB07010CFB0EF7B9
:1017E000B0EB074072EB17420CFB08F734BFA2EBDB
:1017F0000742B2EB074261EB17414FEA8C554FEAC3
:10180000910704EB9C2406FB07FC4FEA1C4C0CFBE5
:101810000BF7B0EBC74072EB573203FB0CF734BF4A
:10182000A2EBC742B2EBC74261EB57310CFB0EF79C
:10183000B0EBC70072EB57720CFB08F734BFA2EB9A
:10184000C702B2EBC70261EB577115EB4C254FEAAB
:10185000816141EA92114FEA82624FEAD13742EA4E
:10186000901206FB07FC44F100044FEA80604FEA47
:101870001C4C0CFB0BF7D21B03FB0CF761EB0701B5
:101880000CFB0EF7B0EB074072EB17420CFB08F7AE
:1018900034BFA2EB0742B2EB074261EB174115EBF5
:1018A0001C154FEA813141EA92414FEA823242EA05
:1018B00090424FEA80304FEA0C7644F1000448EA47
:1018C00003434EEA0B484FF0000EB2EB080C71EBED
:1018D000030724BF624639464EEB0E0E4FF0000B55
:1018E0000018524149414BEB0B0BB2EB080C71EB6A
:1018F00003077BF1000B24BF624639464EEB0E0E08
:101900004FF0000B0018524149414BEB0B0BB2EB6F
:10191000080C71EB03077BF1000B24BF62463946CC
:101920004EEB0E0E51EA020718BF46F0010616EB09
:101930000E7655F1000254F1000103D5BDE889018E
:10194000BDE80088BDE88901BDE80048B6195241EC
:1019500041EB0101A3F10103704780807F7E7D7C14
:101960007B7A7978777676757473727171706F6E31
:101970006E6D6C6C6B6A6A696868676666656464DC
:10198000636362616160605F5F5E5E5D5D5C5C5B66
:101990005B5A5A59595858575756565555555454D5
:1019A000535352525251515050504F4F4F4E4E4D33
:1019B0004D4D4C4C4C4B4B4B4A4A4A49494948487F
:1019C00048474747474646464545454444444443BF
:1019D00043434342424242414141002B9C4630D462
:1019E00077002BD01CB54FEA370703B44FF0100037
:1019F0004FF01001BAF1000F06D0BCF1000FDCBFB0
:101A000040F0080040F008014FF000000FBCBDE8B6
:101A100010400BF1010BBBF1010F08BF5FEA170784
:101A200022BF12F1010211F101014FF0004143F117
:101A3000000300F0004043EA00007047F9D3570864
:101A4000D0E746EA064613F1400F4FEA16461FDD7F
:101A500013F1200FDFBF16430A46002120335B42FB
:101A6000BED0C3F1200746EA064602FA07F74FEA5E
:101A7000164646EA0706C3F1200722FA03F201FAE6
:101A800007F721FA03F14FF0000342EA0702A7E744
:101A900046EA020646EA06464FEA164646EA0106C6
:101AA000BCBF46EA0646360C4FF000034FF000027A
:101AB0004FF0000194E72DE9804C9A46934670B4AC
:101AC00091E8380007C831EA400C48BF34EA430CBB
:101AD00003D5FFF7E6FDFFF780FFF0BCBDE8008C03
:101AE0002DE9804C9A46934670B491E8380007C8B7
:101AF00010F0804F08BF13F0804F03D100F005F8BD
:101B0000FFF76BFFF0BCBDE8008C20F07F4780EA58
:101B1000030023F07F4C07EB0C03A3F57C5300F08C
:101B20000040A3F1FE0392F0000F00F0B38095F0A7
:101B3000000F00F077802DE901494FEA11404FEA8C
:101B4000144621EA004800FB06FC24EA064708FB8D
:101B500006F607FB08F800FB07F718EB06484CEB06
:101B6000164C4FEA124B18EB07484FEA15464CEB60
:101B7000174022EA0B4E0BFB06FC25EA06470EFB3C
:101B800006F607FB0EFE0BFB07F71EEB064E4CEBB3
:101B9000164C4FF000061EEB074E4CEB174B18EBA4
:101BA0000B0840F1000018EB0E0B58EB000840F159
:101BB00000008F1A4FF000013CBFC943661B14BFE1
:101BC000B5EB040C00213CBFC943F61B4FEA174498
:101BD0004EEA8E0E27EA04454FEA1C4704FB0762D3
:101BE0002CEA074C05FB07F70CFB05F604FB0CFC85
:101BF00016EB074642EB174216EB0C4642EB1C4233
:101C00001BEB060658EB0202414146EA9E0601D54F
:101C1000BDE80189B619524141EB0101A3F101036D
:101C2000BDE801894FEA14454FEA114724EA054609
:101C300021EA074C05FB07F406FB07F70CFB06F14E
:101C400005FB0CFC11EB074144EB17444FEA12472C
:101C500011EB0C4144EB1C4422EA074C05FB07F254
:101C600006FB07F70CFB06F605FB0CFC16EB07461C
:101C700042EB174216EB0C4642EB1C456A1854F136
:101C8000000148BF7047B619524141EB0101A3F171
:101C90000103704795F0000F37D04FEA11424FEA29
:101CA000144721EA024624EA074C02FB07F106FB2F
:101CB00007F70CFB06F402FB0CFC14EB074441EBAA
:101CC00017414FEA154714EB0C4441EB1C4125EA40
:101CD000074C02FB07F506FB07F70CFB06F602FBB9
:101CE0000CFC16EB074645EB174516EB0C4645EB8F
:101CF0001C42121951F1000148BF7047B6195241F8
:101D000041EB0101A3F1010370474FEA14454FEA8B
:101D1000114724EA054621EA074C05FB07F106FBBB
:101D200007F70CFB06F24FF0000605FB0CFC12EB6C
:101D3000074241EB174112EB0C4251EB1C4148BFEB
:101D40007047921841EB0101A3F101037047FEE7D0
:101D5000704772B6FEE700002DE9F04FDFF82092E1
:101D6000002301260325A9F1040B85B00F2709F1F3
:101D7000040AABF1040EFBE006FA03FC12EA0C02C3
:101D80007ED00C7904F00304012C01D0022C20D168
:101D9000846800945C0005FA04F80494009C24EA2A
:101DA00008040094D1F80C80049C08FA04F8009C04
:101DB00048EA0408C0F80880446824EA0C0491F852
:101DC00004C0CCF3001C0CFA03FC4CEA040CC0F871
:101DD00004C00C79E443A4070ED0C4684FEA43085A
:101DE00005FA08FC24EA0C04D1F808C00CFA08FC37
:101DF0004CEA040CC0F80CC00C7904F00304022C6B
:101E000015D1DC0800EB84040294246A4FEA437C79
:101E10004FEADC6807FA08FC24EA0C04D1F810C089
:101E20000CFA08FC4CEA040C029CC4F820C00468BC
:101E30004FEA430805FA08FC24EA0C0491F804C0B0
:101E40000CF0030C0CFA08FC4CEA040CC0F800C0BF
:101E50004C6814F4403F13D04A4CD4F860C04CF0A6
:101E6000010CC4F860C0246E23F0030C04F00104DC
:101E70000094454C64440294A4684FEA837C00E0DB
:101E800075E04FEA1C7807FA08FC24EA0C04B0F16C
:101E9000904F06D0DFF8F4C0604505D14FF0010C3B
:101EA0002EE04FF0000C2BE0DFF8E4C0604502D1DB
:101EB0004FF0020C24E0DFF8DCC0604502D14FF0A7
:101EC000030C1DE0DFF8D0C0604502D14FF0040CD8
:101ED00016E0DFF8C8C0604502D14FF0050C0FE0F6
:101EE000DFF8BCC0604502D14FF0060C08E0DFF817
:101EF000B4C0604502D14FF0070C01E04FF0080C70
:101F00000CFA08FC4CEA040C029CC4F808C0D9F88E
:101F10000040CC46D1F8048094435FEAC82800D53D
:101F20001443CCF80040DAF80040D446D1F80480DD
:101F300094435FEA882800D51443CCF80040DBF8CE
:101F40000040DC46D1F8048094435FEA883800D52D
:101F50001443CCF80040DEF80040F446D1F8048089
:101F600094435FEAC83800D51443CCF800405B1CAA
:101F70000A6832FA03F47FF4FFAE05B000F014B83B
:101F80000804014000100240000001400004004825
:101F900000080048000C00480010004800140048E9
:101FA00000180048001C004830BCBDE8C08F0AB1D2
:101FB0008161704781627047014880687047000006
:101FC00064000020024881680278114481607047F3
:101FD0006400002010B50024032000F063F8002006
:101FE00000F008F808B1012401E000F025F82046CF
:101FF00010BD000070B50E4E05460024307898B133
:102000004FF47A71B1FBF0F00A490968B1FBF0F0C6
:1020100000F050FE40B9102D06D200222946501E75
:1020200000F020F8756000E00124204670BD00003B
:102030006400002070000020094808B5016E41F0DE
:1020400001010166016E01F001010091816D41F015
:1020500080518165806D00F08050009008BD0000C7
:1020600000100240F0B40E4B1B680C46C3F3022371
:10207000C3F10705042D00D90425191D072901D234
:10208000002300E0DB1E012606FA05F1491E21406F
:1020900099409E40761E16403143F0BC01F08EBB45
:1020A0000CED00E0064900F0070208684FF6FF0358
:1020B000184040EA0220034A1043086070470000BD
:1020C0000CED00E00000FA051649B0F5007F086845
:1020D000C0F3412009D0022805D0086820F4C06070
:1020E00040F480600860002070470128FBD0086839
:1020F00020F4C06040F4007008600B483222006891
:1021000050430A4AB0FBF2F0401C00E0401E4A690E
:10211000520501D50028F9D148694005E3D50320CF
:1021200070470000007000407000002040420F0027
:102130000248416841F400714160704700700040FE
:102140000248006800F4C060704700000070004062
:102150002DE9F84F044600270088EC4D3E46010566
:1021600004F1200B1DD5A06E78B1B0F5800F11D011
:10217000B0F5000F04D0B0F5400F22D001270FE0DA
:10218000E86840F48030E8601BE00021201D00F08A
:1021900047FF03E00021584600F0D8FF070010D0A9
:1021A0003E462088C00426D5E06EC0B1B0F1807FE5
:1021B0001AD0B0F1007F0DD0B0F1407F19D00127C7
:1021C00018E0D5F88800A16E20F440000843C5F857
:1021D0008800E6E7E86840F48030E86009E0002124
:1021E000201D00F01DFF03E00021584600F0AEFF67
:1021F0000746F7B13E46206880033AD5A86D4FF0F8
:102200000008C00009D4A86D40F08050A865A86DF2
:102210004FF0010800F080500090DFF8F4A2DAF8E7
:10222000001041F48071CAF80010FFF7C5FE814626
:1022300010E0D5F88800E16E20F040700843C5F842
:102240008800D8E7FFF7B8FEA0EB0900022801D903
:10225000032705E0DAF80000C005F3D5002F7CD095
:102260004FEA0706B8F1000F03D0A86D20F08050A8
:10227000A8652078C00707D0D5F88800A16B20F0AA
:1022800003000843C5F888002078800707D5D5F8F3
:102290008800E16B20F00C000843C5F88800207826
:1022A000400707D5D5F88800216C20F0300008439E
:1022B000C5F888002078000707D5D5F88800616C3C
:1022C00020F0C0000843C5F888002078C00607D574
:1022D000D5F88800A16C20F440700843C5F8880048
:1022E0002078800607D5D5F88800E16C20F440609E
:1022F0000843C5F888002088800507D5D5F88800F0
:10230000216E20F440200843C5F88800208840054D
:1023100007D5D5F88800616E20F440100843C5F851
:1023200088002078400607D5D5F88800216D20F474
:1023300040500843C5F888002078000607D5D5F836
:102340008800616D20F440400843C5F8880020886B
:10235000C00509D5D5F8880000E027E0A16D20F47C
:1023600040300843C5F888002068C00207D5D5F87A
:102370009C00E16D20F003000843C5F89C00208814
:102380004FF0006780044FF0806850D5D5F8880082
:10239000216F20F040600843C5F88800206FB842E4
:1023A0003DD1E86840F48010E86040E0D5F8900046
:1023B00010F4407015D0D4F88810814211D0D5F8AF
:1023C0009000D5F8901020F4407041F48031C5F8A9
:1023D0009010D5F8901021F48031C5F89010C5F810
:1023E0009000C00711D0FFF7E7FD074641F288399A
:1023F00007E000BFFFF7E0FDC11B494501D90326F7
:1024000030E7D5F890008007F4D5D5F89000D4F8DF
:10241000881020F440700843C5F8900022E740453A
:1024200005D10121201D00F0FBFD00B1064620680A
:10243000000317D5D5F88800616F20F0406008438D
:10244000C5F88800606FB84204D1E86840F4801095
:10245000E86007E0404505D10121201D00F0E0FDC6
:1024600000B106462068400317D5D5F88800A16F53
:1024700020F040600843C5F88800A06FB84204D13E
:10248000E86840F48010E86007E0404505D101218C
:10249000201D00F0C5FD00B10646208840041AD575
:1024A000D5F88800E16F20F040500843C5F8880057
:1024B000E06FB0F1805F03D0B0F1005F05D00AE0BB
:1024C0000221201D00F0ACFD03E00221584600F07F
:1024D0003DFE00B106462088000408D5D5F88800E6
:1024E000D4F8801020F080400843C5F888002068A8
:1024F000C00307D555F8880FD4F8841020F00040A9
:1025000008432860304600F005B800000010024083
:102510000070004018BCBDE8E08F00002DE9F047D6
:102520000F4605006BD0494E306800F00700B842F6
:1025300009D2306820F0070038433060306800F07E
:102540000700B8425BD12878414C80070AD5A868BB
:10255000A16801F0F001884204D9A16821F0F001DE
:102560000143A1602878C0072CD06868032811D0E7
:10257000022812D0216898B1490500293FDAA168E4
:1025800021F003010143A160FFF716FD804641F2EF
:10259000883910E021688901EFE721688903ECE7B9
:1025A0008907EAE7FFF708FDA0EB0801494502D9D2
:1025B0000320BDE8F087A068696800F00C00B0EB6C
:1025C000810FEFD1287880070AD5A868A16801F0AB
:1025D000F001884204D2A16821F0F0010143A1601A
:1025E000306800F00700B8420BD9306820F00700CF
:1025F00038433060306800F00700B84201D0012055
:10260000D7E72878400705D5A068E96820F4E0609E
:102610000843A0602878000706D5A068296920F43F
:10262000605040EAC100A06000F03EF8A168094A8D
:10263000C1F30311515C01F01F01C8400649086055
:1026400006480068BDE8F047FFF7D4BC0020024010
:1026500000100240143900087000002068000020BB
:102660000548064900688968054AC1F30221515CA2
:1026700001F01F01C84070477000002000100240A8
:10268000543900080548064900688968054AC1F3BD
:10269000C221515C01F01F01C8407047700000204A
:1026A000001002405439000870B52549002318462F
:1026B0008A68CC6812F00C0204F00306214C4FEA41
:1026C000640509D00C2A05D0042A32D0082A00D18A
:1026D000284670BD012E10D10B681B0704D4D1F819
:1026E0009430C3F3032302E00B68C3F30313164EC5
:1026F00056F82330DAB10C2AEBD1C86800F0030099
:10270000022818D0032818D01846CA68CB68C2F32C
:102710000212C3F306234343521CB3FBF2F2C86810
:10272000C0F34160401C4000B2FBF0F070BD1846A1
:1027300070BD204670BD2046E7E72846E5E700006B
:10274000001002400024F400243900082DE9F84369
:1027500004006FD0FA4DA86800F00C06E86800F09D
:1027600003072078C00664D576B10C2E01D1012F65
:102770000AD0A069002828687AD040F001002860BB
:10278000FFF71AFC80465DE02868800702D5A06943
:102790000028DED0216A2868000703D5286800F0E9
:1027A000F00004E0D5F89400F02202EA1010814213
:1027B00016D9084600F04EFD00283BD1286840F0AD
:1027C000080028602868216A20F0F000084328608B
:1027D0006868E16920F47F4040EA0120686016E003
:1027E000286840F0080028602868216A20F0F0007E
:1027F000084328606868E16920F47F4040EA0120CE
:10280000686026B9206A00F025FD0028D5D1FFF7C1
:102810004BFFA968CB4AC1F30311515C01F01F01C2
:10282000C840C9490860C9480068FFF7E3FB0028B1
:102830007ED12EE0CAE000BFFFF7BEFBA0EB080090
:10284000022876D828688007F6D5286840F0080066
:1028500028602868216A20F0F00008432860686832
:10286000E16920F47F4040EA0120686011E0FFE761
:1028700020F001002860FFF79FFB804606E000BFC4
:10288000FFF79AFBA0EB08000228DAD82868800737
:10289000F6D42078C00740D0082E18D00C2E01D1D5
:1028A000032F14D06068B0F5803F17D0B0F5A02F8B
:1028B000286817D020F480302860286820F4802011
:1028C00028606068E0B1FFF777FB804614E0286875
:1028D000800322D56068002878D01EE0286840F484
:1028E0008030EDE740F480202860F7E7FFF764FBD5
:1028F000A0EB08006428A4D828688003F6D50CE073
:10290000FFF75AFB804605E0FFF756FBA0EB0800F7
:10291000642896D828688003F6D4207880073BD5B1
:10292000042E11D00C2E01D1022F0DD0E06801E051
:10293000AEE1FFE0002828681ED040F480702860D7
:10294000FFF73AFB07460CE0286840050CD5E06825
:102950000028C1D008E000BFFFF72EFBC01B0228F3
:1029600093D828684005F7D56868217C20F0FE40A0
:1029700040EA016068600FE020F480702860FFF793
:102980001BFB074605E000BFFFF716FBC01B022834
:10299000B1D828684005F7D42078000729D56069A8
:1029A0000028D5F8940012D040F00100C5F894003A
:1029B000FFF702FB074604E0FFF7FEFAC01B022800
:1029C00099D8D5F894008007F6D512E02BE120F0D5
:1029D0000100C5F89400FFF7EFFA074605E000BFD5
:1029E000FFF7EAFAC01B022885D8D5F894008007C3
:1029F000F6D42078400766D5A86D0027C00008D41B
:102A0000A86D40F08050A865A86D012700F08050A7
:102A100000904F480168C90512D40168814641F40D
:102A200080710160FFF7C8FA804605E0FFF7C4FA3D
:102A3000A0EB080002287DD8D9F80000C005F5D524
:102A4000A068012816D00528D5F8900017D020F0EE
:102A50000100C5F89000D5F8900020F0040000BFF8
:102A6000C5F89000A06841F28839C0B1FFF7A4FA18
:102A700080460FE0D5F8900040F00100F0E740F00C
:102A80000400C5F89000F5E7FFF796FAA0EB0801FF
:102A900049454FD8D5F890008007F5D50EE0FFF7EF
:102AA0008BFA804606E000BFFFF786FAA0EB08012C
:102AB00049453FD8D5F890008007F5D41FB1A86DDF
:102AC00020F08050A8652078800628D5606A00280C
:102AD000D5F8980012D040F00100C5F89800FFF733
:102AE0006BFA074605E000BFFFF766FAC01B022835
:102AF00020D8D5F898008007F6D510E020F0010026
:102B0000C5F89800FFF758FA074604E0FFF754FAB3
:102B1000C01B02280ED8D5F898008007F6D4A06A0A
:102B2000F0B3022816D00C2E7DD0286820F08070DB
:102B3000286000E0ABE0FFF73FFA0446AAE000009F
:102B400000100240143900087000002068000020C6
:102B500000700040E868E26A00F00301914228D169
:102B6000216B00F0700209011039914221D1626B92
:102B700000F4FE41B1EB022F1BD194F8382000F095
:102B80007841B1EBC26F14D1A18F00F4C0024908A3
:102B90004905A1F5001191420BD194F8401000E0D5
:102BA0006EE04908490600F0C060A1F10071814261
:102BB0004FD00C2E77D02868400174D42868C0000C
:102BC00071D4286820F080702860FFF7F5F9064678
:102BD00005E000BFFFF7F0F9801B022857D82868EE
:102BE0008001F7D4F4E90B016FF00F0202EB011141
:102BF0000843218A5204490802EB4151A26841EA84
:102C000002210843217D4FF07E42490802EB4161D9
:102C10000843217B40EAC160E968244A1140084327
:102C2000E860286800E03EE040F080702860E868D6
:102C300040F08070E860FFF7BFF9044605E000BF90
:102C4000FFF7BAF9001B022821D828688001F7D5C0
:102C500027E02868800124D4286840F0807028602C
:102C6000E86840F08070E860FFF7A6F9044604E0E9
:102C7000FFF7A2F9001B022809D828688001F7D5C0
:102C80000FE000BFFFF798F9001B022802D90320CC
:102C9000BDE8F88328688001F4D4E8680449084056
:102CA000E8600020F4E70120F2E700008C809D013D
:102CB000FCFFEEFE10B5401EB0F1807F01D3012075
:102CC00010BD4FF0E02460610F21601700F076FD29
:102CD0000020A06107202061002010BD10B5040075
:102CE00002D0A06F10B107E0012010BD002084F8D1
:102CF0007400204600F026F82420A06720680168B0
:102D000021F001010160204600F0B8FB0128ECD061
:102D1000606A10B1204600F01FFB2068416821F472
:102D2000904141602068816821F02A01816020681B
:102D3000016841F0010101602046BDE8104000F04B
:102D40006FBB0000F0B5A9B00446142123A8FDF71D
:102D50009CFB8C216846FDF798FB2C4920682C4C85
:102D6000022603270025884225D1202000901395B4
:102D70006846FFF7EDF908B1FEF7EBFFE06D40F0B4
:102D80000100E065E06D00F001002890E06C40F08B
:102D90004000E064E06C00F040002890FFF7C8F9C4
:102DA0004FF4C0702595CDE923060820CDE92670A3
:102DB00023A9184825E01849884224D1042000900E
:102DC00010956846FFF7C4F908B1FEF7C2FFA06D81
:102DD00040F48020A065A06D00F480202890E06C75
:102DE00040F00400E064E06C259500F004002890B9
:102DF0004FF44060CDE923060720CDE9267023A9D2
:102E00000648FEF7A9FF29B0F0BD00000080004091
:102E10000010024000180048004800400008004828
:102E20002DE9F8430446806F1F4616460D462028BC
:102E30004FD1CDB1C6B194F87400012849D001201A
:102E400084F874004FF00008C4F880802120A06747
:102E5000FFF7B2F8A4F850608146A4F85260A06869
:102E6000B0F5805F03D004E00120BDE8F88320695D
:102E700028B12E465FF0000584F8748010E000262B
:102E8000FAE78021204600F01DFCB8B9C6B116F85B
:102E9000010B21680885B4F85200401EA4F85200C6
:102EA000B4F852004B464FF0000200970028E8D1DA
:102EB0004FF04001204600F005FC30B10320D4E77C
:102EC00035F8020BC0F30800E3E72020A0670020DC
:102ED000CBE70220C9E7FEE72DE9F04186B01421D7
:102EE0006846FDF7D2FA3A4CE06C40F00400E0642A
:102EF000E06C00F004000590E06C40F08000E064BD
:102F0000E06C00F080000590E06C40F00200E064AE
:102F1000E06C00F002000590E06C40F04000E064DE
:102F2000E06C00F040000590FFF702F9E06C40F023
:102F30000100E064E06C274F00F001004FF4814590
:102F40000590002229463846FFF731F8DFF88880DF
:102F50004FF43156002231464046FFF728F84FF42F
:102F6000005000904FF488100024CDE90104694618
:102F70001A48FEF7F1FE00950125CDE90154694696
:102F800038460394FEF7E8FE4FF48150CDE9000483
:102F9000694640460294FEF7DFFE0096CDE90154F3
:102FA000694640460394FEF7D7FE4FF4E850009080
:102FB0000220CDE90104032003900A200490694611
:102FC0004FF09040FEF7C8FE06B0BDE8F08100006B
:102FD00000100240000400480018004800080048A3
:102FE0000C4810B50A4901604FF4E13141600021FD
:102FF00081600C22C160C0E904128161C16101627B
:103000004162FFF76BFE002801D072B6FEE710BDEB
:1030100000480040F8000020FEE7FEE7704700008F
:103020002DE9F041444C05468846E06800268107BA
:1030300028680DD0E16801F00301814216D1A8B1E2
:10304000E0686968C0F30210401C88420ED120E09D
:10305000012804D0022805D0032807D108E0216800
:10306000890701E021684905002907DB01265FE0A7
:103070002168890302D421684903F5E7E1686A6899
:103080006FF00F0321F0730103EB021211430143B0
:10309000E160206820F080602060FEF78DFF074629
:1030A00005E000BFFEF788FFC01B022837D8206864
:1030B0000001F7D4B8F1000F18D0B8F1010F1DD0FE
:1030C000287D4FF07E41400801EB4060A96840EA4E
:1030D00001202169194A114008432061206840F00D
:1030E00080602060FEF768FF07461AE0A868297B29
:1030F000000240EAC1602169114AECE7288A1149BF
:10310000400801EB4050A96840EA012021690E4ABD
:10311000E1E700BFFEF750FFC01B022801D90326DC
:1031200006E020680001F5D52069A96908432061FF
:103130003046BDE8F081000000100240FF80FFF93A
:10314000FF80FF070000E0FFFF809FFF2DE9F041B7
:103150003D4C06468846E0680025810730680DD062
:10316000E16801F00301814216D1A8B1E0687168FD
:10317000C0F30210401C88420ED120E0012804D088
:10318000022805D0032807D108E02168890701E05B
:1031900021684905002907DB012551E021688903E1
:1031A00002D421684903F5E7E16872686FF00F0304
:1031B00021F0730103EB021211430143E160206827
:1031C00020F080502060FEF7F7FE074605E000BFC4
:1031D000FEF7F2FEC01B022829D820688000F7D431
:1031E000B8F1000F15D0307C4FF07E41400801EB64
:1031F0004060B16840EA01206169144A1140084307
:103200006061206840F080502060FEF7D5FE0746E0
:103210000FE0B068317B000240EAC16061690C4A8E
:10322000ECE700BFFEF7C8FEC01B022801D903254A
:1032300006E020688000F5D5606971690843606127
:103240002846BDE8F081000000100240FF80FFF931
:10325000FF80FF07F8B51C4D06460024A86DC0008E
:1032600002D5FEF76DFF0DE0A86D40F08050A86517
:10327000A86D00F080500090FEF762FFA96D21F06C
:103280008051A965B0F5007F04D0802E07D94FF09A
:1032900003040AE0802E08D9A02E01D804E001D151
:1032A000022402E0702E00D101240848016821F0B8
:1032B000070121430160006800F00700A04201D02F
:1032C0000120F8BD0020F8BD00100240002002409F
:1032D0007047FEF777BE00B597B044216846FDF70A
:1032E000D4F8142111A8FDF7D0F84FF40070FEF7C0
:1032F000EBFE08B172B6FEE70220C1010391402146
:10330000009004910BAB0A900421462283E8070049
:103310000E90CDE90F016846FFF718FA08B172B6B2
:10332000FEE70F20119003201290802013900020C0
:1033300014901590022111A8FFF7F0F8002801D091
:1033400072B6FEE717B000BD0248016841F4700193
:103350000160704788ED00E090F82410C90706D09E
:1033600001684A68836A22F400321A434A6090F87E
:103370002410890706D501684A68C36A22F480329E
:103380001A434A6090F82410490706D501684A6834
:10339000036B22F480221A434A6090F82410090734
:1033A00006D501684A68436B22F400421A434A601A
:1033B00090F82410C90606D501688A68836B22F448
:1033C00080521A438A6090F82410890606D5016855
:1033D0008A68C36B22F400521A438A6090F8241062
:1033E000490611D501684A68036C22F480121A4319
:1033F0004A60016CB1F5801F06D101684A68436CD0
:1034000022F4C0021A434A6090F82410090606D537
:1034100001684A68806C22F4002202434A607047C7
:10342000F8B500260446C0F88060FEF7C5FD0546E5
:10343000206800686FF07E47000708D52B46002201
:103440004FF400112046009700F03CF960B9206865
:10345000006840070AD52B4600224FF48001204621
:10346000009700F02FF908B10320F8BD2020A067D5
:10347000E067266684F874600020F8BD2DE9F0410D
:103480000446016880682269E36910436269002587
:103490001A431043814F0A68814B1A4002430A6065
:1034A00020684168E26821F440511143416021687D
:1034B000A069B94201D0226A10438A6822F43062BE
:1034C00002438A607749226877488A420DD1D0F852
:1034D000880010F0030006D0012866D0022854D0DE
:1034E000032851D163E001204FE070498A420BD19B
:1034F000D0F8880010F00C0047D0042845D00828E8
:1035000051D00C2840D152E069498A420BD1D0F801
:10351000880010F0300038D0102846D0202842D043
:10352000302831D143E063498A420BD1D0F888007A
:1035300010F0C00029D0402837D0802833D0C028D0
:1035400022D134E05C498A420ED1D0F8880010F4D0
:1035500040701AD0B0F5807F27D0B0F5007F22D020
:10356000B0F5407F10D122E0BA420DD1D0F88800EA
:1035700010F4406009D0B0F5806F16D0B0F5006F40
:1035800011D0B0F5406F12D010204C4900264FF4F6
:103590000043BA422ED160B102280DD004280DD0CC
:1035A00008286FD10EE00220EFE70420EDE70820A5
:1035B000EBE7FFF755F803E00B4603E0FFF774F87D
:1035C000030060D0626802EB420098425AD8B3EB25
:1035D000023F57D8190E1B025008181871410023DA
:1035E000FCF7AAFE364AA0F5407191424AD82168FC
:1035F000C86048E0E2694FF6EF779A4227D1092880
:1036000040D2DFE800F005080D3F213F3F3F0E00AC
:10361000FFF726F801E0FFF735F8030001D132E0AB
:103620000B466068590001EB5001B1FBF0F0A0F1CE
:103630001001B94226D84FF6F0710140C0F34200A4
:1036400001432068C1601EE0FFF72EF8E5E7092876
:1036500018D2DFE800F005080D171D1717170E0028
:10366000FEF7FEFF01E0FFF70DF8030001D10AE0CD
:103670000B46606803EB5001B1FBF0F0A0F11001C4
:10368000B94208D9012566662846A666BDE8F081DC
:10369000FFF70AF8E9E780B2A9E7000000800040E0
:1036A000F369FFEF00380140001002400044004081
:1036B00000480040004C0040005000400024F4004E
:1036C000FFFC0F002DE9F0479A4617460E460446C8
:1036D0004FF000094FF02008089D4AE0681C48D0D0
:1036E000FEF76AFCA0EB0A00A8422AD84DB3206876
:1036F000016849073DD5C069C043000539D4216838
:103700004FF400600862206850E8001F21F4D07177
:1037100040E80012002AF6D12068083050E8001F67
:1037200021F0010140E80012002AF5D1C4F87880A8
:10373000C4F87C80C4F8808084F874900320BDE8CD
:10374000F087216851E8000F20F4D07041E80002B2
:10375000002AF6D12068083050E8001F21F001014E
:1037600040E80012002AF5D1C4F87880C4F87C80C3
:10377000E2E72068C06936EA000004D00020B842C1
:10378000ACD00020DBE70120F9E7FEE703B40198A5
:103790004100009850EAC12018BF04204A0D18BF0C
:1037A00040F0010040F2FF72B2EB515F08BF40F001
:1037B0000200012808BF052002B070470907090E62
:1037C000002804DB00F1E02080F80014704700F0CE
:1037D0000F0000F1E02080F8141D704730380A28EF
:1037E00001D201207047002070470000FEF7F2FB75
:1037F000FFF771FDFFF770FB174816490C220160B7
:103800004FF4E131416000218160C160C0E90412E0
:10381000816101624162FFF761FA08B172B6FEE7A9
:10382000FFF7DEFB4FF0FF352B4664220B490A48B9
:10383000FFF7F6FAFEF7C0FB044600F5FA7600BF84
:10384000FEF7BAFBB042FBD9214605A000F014F800
:10385000EAE7000000800040740000200000002023
:1038600043757272656E74205469636B73203A20DD
:1038700025640D0A000000000FB400B595B017AA2A
:1038800068461699FCF7D0FD6846FCF7DFFD82B26A
:103890004FF0FF3369460348FFF7C2FA15B05DF8F1
:1038A00014FB0000F800002010B500290AD00878A9
:1038B000002807D005487844FDF73AFE002801D0DB
:1038C000002010BD0248784410BD0000C201000075
:1038D000BA01000010B500290AD00878002807D0E6
:1038E00005487844FDF724FE002801D0002010BDD3
:1038F0000248784410BD0000B2010000AA01000097
:103900004FF04070E1EE100A7047FDF719BAFDF76D
:1039100051BB000000000000000000000102030491
:1039200006070809A0860100400D0300801A060062
:1039300000350C0040420F0080841E0000093D004D
:1039400000127A000024F40000366E010048E801FD
:10395000006CDC0200000000010203040000000013
:1039600000000000303132333435363738394142C7
:1039700043444546403058003031323334353637D1
:10398000383961626364656640307800040000087D
:103990000000000000000002000100001030313281
:1039A0003334353637383961626364656678700060
:1039B0003031323334353637383941424344454665
:1039C0005850000002400000000000A0000000006D
:1039D00005400000000000C8000000000C4000008E
:1039E0000000409C00000000194000000020BCBE08
:1039F0000000000034400000BFC91B8E000000041E
:103A0000B5400000504BCFD06607E2CF0100000068
:103A10006C4100003E8251AADFEEA7340100000095
:103A2000D9420000DCB5A0E23A301F97FFFFFFFF4C
:103A3000B4450000FD25A0C8E9A3C14FFFFFFFFF6B
:103A4000FF3F00000000008000000000FF3F00007A
:103A50000000008000000000A43B000800000020DF
:103A600074000000E8010008183C00087400002001
:103A70006C070000040200081C0000004300000066
:103A8000F8FFFFFF0C0000000E0000000F00000018
:103A90002E0000001001000043000000F8FFFFFFAF
:103AA0000040404040404040404041414141414051
:103AB0004040404040404040404040404040404006
:103AC0004005020202020202020202020202020295
:103AD000022020202020202020202002020202029A
:103AE00002029090909090901010101010101010F2
:103AF00010101010101010101010101002020202FE
:103B00000202888888888888080808080808080841
:103B1000080808080808080808080808020202023D
:103B20004000000000000000000000000000000055
:103B30000000000000000000000000000000000085
:103B40000000000000000000000000000000000075
:103B50000000000000000000000000000000000065
:103B60000000000000000000000000000000000055
:103B70000000000000000000000000000000000045
:103B80000000000000000000000000000000000035
:103B90000000000000000000000000000000000025
:103BA000000000004170706C69636174696F6E2081
:103BB00069732052756E6E696E670D0A0000000011
:103BC00000000000000000000000000000000000F5
:103BD00000000000000000000000000000000000E5
:103BE00000000000000000000000000000000000D5
:103BF00000000000000000000000000000000000C5
:103C000000000000000000000100000010000000A3
:083C10000000000000093D0066
:04000005080001AD41
:00000001FF
