:020000040800F2
:10800000980700204D8200080F9800087796000816
:108010000D9800087F8400088F9F00080000000072
:10802000000000000000000000000000C59A0008E9
:10803000818400080000000011980008C79A000819
:10804000678200086782000867820008678200086C
:10805000678200086782000867820008678200085C
:10806000678200086782000867820008678200084C
:10807000678200086782000867820008678200083C
:10808000678200086782000867820008678200082C
:10809000678200086782000867820008678200081C
:1080A000678200086782000867820008678200080C
:1080B00067820008678200086782000867820008FC
:1080C00067820008678200086782000867820008EC
:1080D00067820008678200086782000867820008DC
:1080E00085840008678200086782000867820008AC
:1080F00067820008678200086782000867820008BC
:1081000067820008678200086782000867820008AB
:10811000678200086782000867820008678200089B
:10812000678200086782000867820008678200088B
:10813000678200086782000867820008678200087B
:10814000678200086782000867820008678200086B
:10815000678200086782000867820008678200085B
:10816000678200086782000867820008678200084B
:10817000678200086782000867820008000000002C
:10818000678200086782000867820008678200082B
:10819000678200086782000867820008678200081B
:1081A00067820008678200086782000800F002F812
:1081B00000F03CF80AA090E8000C82448344AAF145
:1081C0000107DA4501D100F031F8AFF2090EBAE843
:1081D0000F0013F0010F18BFFB1A43F001031847FB
:1081E000941E0000B41E0000103A24BF78C878C165
:1081F000FAD8520724BF30C830C144BF04680C60AD
:10820000704700000023002400250026103A28BFF4
:1082100078C1FBD8520728BF30C148BF0B607047F8
:108220001FB501F0FDFE1FBD10B510BD00F0EEF84A
:108230001146FFF7F5FF01F0BBFE00F00CF903B4A7
:10824000FFF7F2FF03BC00F013F900000948804774
:1082500009480047FEE7FEE7FEE7FEE7FEE7FEE728
:10826000FEE7FEE7FEE7FEE704480549054A064B40
:1082700070470000419B0008AD8100089801002074
:1082800098070020980300209803002053EA020C6E
:1082900000F069802DE9F04B4FF00006002B1FBF66
:1082A000B3FA83F503FA05F424FA05F65E4012BF2B
:1082B0001643B2FA82F502FA05F4C5F120051EBF95
:1082C00022FA05FC44EA0C04203556EA044C4FEA35
:1082D000144418BF641C4FF000084FF0000990428E
:1082E00071EB030C39D3002919BFB1FA81F701FAF8
:1082F00007F6B0FA80F700FA07F6C7F120071EBFAD
:1083000020FA07FC46EA0C062037B6FBF4FCA7EB84
:108310000507103F07F01F0BCBF120060CFA0BFBF3
:108320002CFA06F644BFB3460026202FA4BF5E46B3
:108330004FF0000B5BEA060C08BF4FF0010B19EB86
:108340000B09ABFB027C48EB0608C01B06FB02CC0A
:108350000BFB03CC71EB0C01C1E70B460246414617
:108360004846BDE8F08B13B54FF000004FF0000118
:10837000AFF30080BDE81C40704710B5431C02E01D
:1083800010F8011B71B18107FAD14FF0013202C818
:108390008C1A8C4314EAC211F9D0C01A0A0603D011
:1083A000C01E10BDC01A10BD0A0401D0801E10BD31
:1083B0000902FCD0401E10BD4FF0000200B513466C
:1083C00094469646203922BFA0E80C50A0E80C50F5
:1083D000B1F12001BFF4F7AF090728BFA0E80C50A6
:1083E00048BF0CC05DF804EB890028BF40F8042B9F
:1083F00008BF704748BF20F8022B11F0804F18BF0C
:1084000000F8012B7047704770477047754600F0C1
:108410002BF8AE4605006946534620F00700854616
:1084200018B020B5FFF720FFBDE820404FF0000650
:108430004FF000074FF000084FF0000B21F007014C
:10844000AC46ACE8C009ACE8C009ACE8C009ACE88F
:10845000C0098D46704710B50446AFF30080204632
:10846000BDE81040FFF7EBBE004870473801002020
:1084700001491820ABBEFEE7260002007047FEE768
:108480007047000010B50B4C207870B1002280219D
:10849000094800F04EF9207848B100202070BDE86E
:1084A00010404FF4005000F00DB80122EFE701201A
:1084B000F4E700001E0000200008004872B6FEE746
:1084C00070470000044910B50A68024202D00860F3
:1084D000FFF7F6FF10BD0000140401402DE9F04F36
:1084E000DFF82092002301260325A9F1040B85B0B3
:1084F0000F2709F1040AABF1040EFBE006FA03FCB6
:1085000012EA0C027ED00C7904F00304012C01D095
:10851000022C20D1846800945C0005FA04F80494CD
:10852000009C24EA08040094D1F80C80049C08FA0A
:1085300004F8009C48EA0408C0F80880446824EA6B
:108540000C0491F804C0CCF3001C0CFA03FC4CEAB8
:10855000040CC0F804C00C79E443A4070ED0C4682E
:108560004FEA430805FA08FC24EA0C04D1F808C0D5
:108570000CFA08FC4CEA040CC0F80CC00C7904F0AE
:108580000304022C15D1DC0800EB84040294246A55
:108590004FEA437C4FEADC6807FA08FC24EA0C0443
:1085A000D1F810C00CFA08FC4CEA040C029CC4F888
:1085B00020C004684FEA430805FA08FC24EA0C04CA
:1085C00091F804C00CF0030C0CFA08FC4CEA040C03
:1085D000C0F800C04C6814F4403F13D04A4CD4F8A3
:1085E00060C04CF0010CC4F860C0246E23F0030C92
:1085F00004F001040094454C64440294A4684FEADA
:10860000837C00E075E04FEA1C7807FA08FC24EA56
:108610000C04B0F1904F06D0DFF8F4C0604505D1EE
:108620004FF0010C2EE04FF0000C2BE0DFF8E4C01F
:10863000604502D14FF0020C24E0DFF8DCC0604559
:1086400002D14FF0030C1DE0DFF8D0C0604502D12D
:108650004FF0040C16E0DFF8C8C0604502D14FF0BF
:10866000050C0FE0DFF8BCC0604502D14FF0060CEE
:1086700008E0DFF8B4C0604502D14FF0070C01E01C
:108680004FF0080C0CFA08FC4CEA040C029CC4F8ED
:1086900008C0D9F80040CC46D1F8048094435FEA82
:1086A000C82800D51443CCF80040DAF80040D4467E
:1086B000D1F8048094435FEA882800D51443CCF8AD
:1086C0000040DBF80040DC46D1F8048094435FEAC8
:1086D000883800D51443CCF80040DEF80040F4465A
:1086E000D1F8048094435FEAC83800D51443CCF82D
:1086F00000405B1C0A6832FA03F47FF4FFAE05B059
:1087000000F014B8080401400010024000000140CD
:108710000004004800080048000C00480010004811
:108720000014004800180048001C004830BCBDE898
:10873000C08F0AB1816170478162704701488068CB
:108740007047000020000020024881680278114430
:10875000816070472000002010B50024032000F045
:1087600071F8002000F008F808B1012401E000F0E1
:1087700025F8204610BD000070B50E4E05460024B9
:10878000307898B14FF47A71B1FBF0F00A4909687A
:10879000B1FBF0F000F05EFE40B9102D06D20022D1
:1087A0002946501E00F02EF8756000E00124204696
:1087B00070BD0000200000202C000020094808B5F2
:1087C000016E41F001010166016E01F001010091AD
:1087D000816D41F080518165806D00F08050009086
:1087E00008BD000000100240002809DB00F01F0255
:1087F000012191404009800000F1E020C0F8001103
:1088000070470000F0B40E4B1B680C46C3F3022304
:10881000C3F10705042D00D90425191D072901D22C
:10882000002300E0DB1E012606FA05F1491E214067
:1088300099409E40761E16403143F0BC01F0A8BB23
:108840000CED00E0064900F0070208684FF6FF0350
:10885000184040EA0220034A1043086070470000B5
:108860000CED00E00000FA051649B0F5007F08683D
:10887000C0F3412009D0022805D0086820F4C06068
:1088800040F480600860002070470128FBD0086831
:1088900020F4C06040F4007008600B483222006889
:1088A00050430A4AB0FBF2F0401C00E0401E4A6907
:1088B000520501D50028F9D148694005E3D50320C8
:1088C00070470000007000402C00002040420F0064
:1088D0000248416841F400714160704700700040F7
:1088E0000248006800F4C06070470000007000405B
:1088F0002DE9F84F044600270088EC4D3E4601055F
:1089000004F1200B1DD5A06E78B1B0F5800F11D009
:10891000B0F5000F04D0B0F5400F22D001270FE0D2
:10892000E86840F48030E8601BE00021201D00F082
:1089300071FF03E00021584601F002F8070010D053
:108940003E462088C00426D5E06EC0B1B0F1807FDD
:108950001AD0B0F1007F0DD0B0F1407F19D00127BF
:1089600018E0D5F88800A16E20F440000843C5F84F
:108970008800E6E7E86840F48030E86009E000211C
:10898000201D00F047FF03E00021584600F0D8FF0B
:108990000746F7B13E46206880033AD5A86D4FF0F0
:1089A0000008C00009D4A86D40F08050A865A86DEB
:1089B0004FF0010800F080500090DFF8F4A2DAF8E0
:1089C000001041F48071CAF80010FFF7B7FE81462D
:1089D00010E0D5F88800E16E20F040700843C5F83B
:1089E0008800D8E7FFF7AAFEA0EB0900022801D90A
:1089F000032705E0DAF80000C005F3D5002F7CD08E
:108A00004FEA0706B8F1000F03D0A86D20F08050A0
:108A1000A8652078C00707D0D5F88800A16B20F0A2
:108A200003000843C5F888002078800707D5D5F8EB
:108A30008800E16B20F00C000843C5F8880020781E
:108A4000400707D5D5F88800216C20F03000084396
:108A5000C5F888002078000707D5D5F88800616C34
:108A600020F0C0000843C5F888002078C00607D56C
:108A7000D5F88800A16C20F440700843C5F8880040
:108A80002078800607D5D5F88800E16C20F4406096
:108A90000843C5F888002088800507D5D5F88800E8
:108AA000216E20F440200843C5F888002088400546
:108AB00007D5D5F88800616E20F440100843C5F84A
:108AC00088002078400607D5D5F88800216D20F46D
:108AD00040500843C5F888002078000607D5D5F82F
:108AE0008800616D20F440400843C5F88800208864
:108AF000C00509D5D5F8880000E027E0A16D20F475
:108B000040300843C5F888002068C00207D5D5F872
:108B10009C00E16D20F003000843C5F89C0020880C
:108B20004FF0006780044FF0806850D5D5F888007A
:108B3000216F20F040600843C5F88800206FB842DC
:108B40003DD1E86840F48010E86040E0D5F890003E
:108B500010F4407015D0D4F88810814211D0D5F8A7
:108B60009000D5F8901020F4407041F48031C5F8A1
:108B70009010D5F8901021F48031C5F89010C5F808
:108B80009000C00711D0FFF7D9FD074641F28839A0
:108B900007E000BFFFF7D2FDC11B494501D90326FD
:108BA00030E7D5F890008007F4D5D5F89000D4F8D8
:108BB000881020F440700843C5F8900022E7404533
:108BC00005D10121201D00F025FE00B106462068D8
:108BD000000317D5D5F88800616F20F04060084386
:108BE000C5F88800606FB84204D1E86840F480108E
:108BF000E86007E0404505D10121201D00F00AFE94
:108C000000B106462068400317D5D5F88800A16F4B
:108C100020F040600843C5F88800A06FB84204D136
:108C2000E86840F48010E86007E0404505D1012184
:108C3000201D00F0EFFD00B10646208840041AD543
:108C4000D5F88800E16F20F040500843C5F888004F
:108C5000E06FB0F1805F03D0B0F1005F05D00AE0B3
:108C60000221201D00F0D6FD03E00221584600F04D
:108C700067FE00B106462088000408D5D5F88800B4
:108C8000D4F8801020F080400843C5F888002068A0
:108C9000C00307D555F8880FD4F8841020F00040A1
:108CA00008432860304600F005B80000001002407C
:108CB0000070004018BCBDE8E08F00002DE9F047CF
:108CC0000F4605006BD0494E306800F00700B842EF
:108CD00009D2306820F0070038433060306800F077
:108CE0000700B8425BD12878414C80070AD5A868B4
:108CF000A16801F0F001884204D9A16821F0F001D7
:108D00000143A1602878C0072CD06868032811D0DF
:108D1000022812D0216898B1490500293FDAA168DC
:108D200021F003010143A160FFF708FD804641F2F5
:108D3000883910E021688901EFE721688903ECE7B1
:108D40008907EAE7FFF7FAFCA0EB0801494502D9D9
:108D50000320BDE8F087A068696800F00C00B0EB64
:108D6000810FEFD1287880070AD5A868A16801F0A3
:108D7000F001884204D2A16821F0F0010143A16012
:108D8000306800F00700B8420BD9306820F00700C7
:108D900038433060306800F00700B84201D001204D
:108DA000D7E72878400705D5A068E96820F4E06097
:108DB0000843A0602878000706D5A068296920F438
:108DC000605040EAC100A06000F03EF8A168094A86
:108DD000C1F30311515C01F01F01C840064908604E
:108DE00006480068BDE8F047FFF7C6BC0020024017
:108DF000001002402CA000082C00002024000020BD
:108E00000548064900688968054AC1F30221515C9A
:108E100001F01F01C84070472C00002000100240E4
:108E20006CA000080548064900688968054AC1F336
:108E3000C221515C01F01F01C84070472C00002086
:108E4000001002406CA0000870B5254900231846A8
:108E50008A68CC6812F00C0204F00306214C4FEA39
:108E6000640509D00C2A05D0042A32D0082A00D182
:108E7000284670BD012E10D10B681B0704D4D1F811
:108E80009430C3F3032302E00B68C3F30313164EBD
:108E900056F82330DAB10C2AEBD1C86800F0030091
:108EA000022818D0032818D01846CA68CB68C2F325
:108EB0000212C3F306234343521CB3FBF2F2C86809
:108EC000C0F34160401C4000B2FBF0F070BD18469A
:108ED00070BD204670BD2046E7E72846E5E7000064
:108EE000001002400024F4003CA000082DE9F843E3
:108EF00004006FD0FA4DA86800F00C06E86800F096
:108F000003072078C00664D576B10C2E01D1012F5D
:108F10000AD0A069002828687AD040F001002860B3
:108F2000FFF70CFC80465DE02868800702D5A06949
:108F30000028DED0216A2868000703D5286800F0E1
:108F4000F00004E0D5F89400F02202EA101081420B
:108F500016D9084600F078FD00283BD1286840F07B
:108F6000080028602868216A20F0F0000843286083
:108F70006868E16920F47F4040EA0120686016E0FB
:108F8000286840F0080028602868216A20F0F00076
:108F9000084328606868E16920F47F4040EA0120C6
:108FA000686026B9206A00F04FFD0028D5D1FFF790
:108FB0004BFFA968CB4AC1F30311515C01F01F01BB
:108FC000C840C9490860C9480068FFF7D5FB0028B8
:108FD0007ED12EE0CAE000BFFFF7B0FBA0EB080097
:108FE000022876D828688007F6D5286840F008005F
:108FF00028602868216A20F0F0000843286068682B
:10900000E16920F47F4040EA0120686011E0FFE759
:1090100020F001002860FFF791FB804606E000BFCA
:10902000FFF78CFBA0EB08000228DAD8286880073D
:10903000F6D42078C00740D0082E18D00C2E01D1CD
:10904000032F14D06068B0F5803F17D0B0F5A02F83
:10905000286817D020F480302860286820F4802009
:1090600028606068E0B1FFF769FB804614E028687B
:10907000800322D56068002878D01EE0286840F47C
:109080008030EDE740F480202860F7E7FFF756FBDB
:10909000A0EB08006428A4D828688003F6D50CE06B
:1090A000FFF74CFB804605E0FFF748FBA0EB08000C
:1090B000642896D828688003F6D4207880073BD5AA
:1090C000042E11D00C2E01D1022F0DD0E06801E04A
:1090D000AEE1FFE0002828681ED040F480702860D0
:1090E000FFF72CFB07460CE0286840050CD5E0682C
:1090F0000028C1D008E000BFFFF720FBC01B0228FA
:1091000093D828684005F7D56868217C20F0FE4098
:1091100040EA016068600FE020F480702860FFF78B
:109120000DFB074605E000BFFFF708FBC01B022848
:10913000B1D828684005F7D42078000729D56069A0
:109140000028D5F8940012D040F00100C5F8940032
:10915000FFF7F4FA074604E0FFF7F0FAC01B022815
:1091600099D8D5F894008007F6D512E02BE120F0CD
:109170000100C5F89400FFF7E1FA074605E000BFDB
:10918000FFF7DCFAC01B022885D8D5F894008007C9
:10919000F6D42078400766D5A86D0027C00008D413
:1091A000A86D40F08050A865A86D012700F08050A0
:1091B00000904F480168C90512D40168814641F406
:1091C00080710160FFF7BAFA804605E0FFF7B6FA52
:1091D000A0EB080002287DD8D9F80000C005F5D51D
:1091E000A068012816D00528D5F8900017D020F0E7
:1091F0000100C5F89000D5F8900020F0040000BFF1
:10920000C5F89000A06841F28839C0B1FFF796FA1E
:1092100080460FE0D5F8900040F00100F0E740F004
:109220000400C5F89000F5E7FFF788FAA0EB080105
:1092300049454FD8D5F890008007F5D50EE0FFF7E7
:109240007DFA804606E000BFFFF778FAA0EB080140
:1092500049453FD8D5F890008007F5D41FB1A86DD7
:1092600020F08050A8652078800628D5606A002804
:10927000D5F8980012D040F00100C5F89800FFF72B
:109280005DFA074605E000BFFFF758FAC01B022849
:1092900020D8D5F898008007F6D510E020F001001E
:1092A000C5F89800FFF74AFA074604E0FFF746FAC8
:1092B000C01B02280ED8D5F898008007F6D4A06A03
:1092C000F0B3022816D00C2E7DD0286820F08070D4
:1092D000286000E0ABE0FFF731FA0446AAE00000A6
:1092E000001002402CA000082C00002024000020C8
:1092F00000700040E868E26A00F00301914228D162
:10930000216B00F0700209011039914221D1626B8A
:1093100000F4FE41B1EB022F1BD194F8382000F08D
:109320007841B1EBC26F14D1A18F00F4C00249089B
:109330004905A1F5001191420BD194F8401000E0CD
:109340006EE04908490600F0C060A1F10071814259
:109350004FD00C2E77D02868400174D42868C00004
:1093600071D4286820F080702860FFF7E7F906467E
:1093700005E000BFFFF7E2F9801B022857D82868F4
:109380008001F7D4F4E90B016FF00F0202EB011139
:109390000843218A5204490802EB4151A26841EA7C
:1093A00002210843217D4FF07E42490802EB4161D2
:1093B0000843217B40EAC160E968244A1140084320
:1093C000E860286800E03EE040F080702860E868CF
:1093D00040F08070E860FFF7B1F9044605E000BF97
:1093E000FFF7ACF9001B022821D828688001F7D5C7
:1093F00027E02868800124D4286840F08070286025
:10940000E86840F08070E860FFF798F9044604E0EF
:10941000FFF794F9001B022809D828688001F7D5C6
:109420000FE000BFFFF78AF9001B022802D90320D2
:10943000BDE8F88328688001F4D4E868044908404E
:10944000E8600020F4E70120F2E700008C809D0135
:10945000FCFFEEFE10B5401EB0F1807F01D301206D
:1094600010BD4FF0E02460610F21601700F090FD07
:109470000020A06107202061002010BD10B504006D
:1094800002D0A06F10B107E0012010BD002084F8C9
:109490007400204600F026F82420A06720680168A8
:1094A00021F001010160204600F0EAFB0128ECD028
:1094B000606A10B1204600F051FB2068416821F439
:1094C000904141602068816821F02A018160206814
:1094D000016841F0010101602046BDE8104000F044
:1094E000A1BB0000F0B5A9B00446142123A8FEF7E3
:1094F00063FF8C216846FEF75FFF2C4920682C4CE7
:10950000022603270025884225D1202000901395AC
:109510006846FFF7EDF908B1FEF7D0FFE06D40F0C7
:109520000100E065E06D00F001002890E06C40F083
:109530004000E064E06C00F040002890FFF7C8F9BC
:109540004FF4C0702595CDE923060820CDE926709B
:1095500023A9184825E01849884224D10420009006
:1095600010956846FFF7C4F908B1FEF7A7FFA06D94
:1095700040F48020A065A06D00F480202890E06C6D
:1095800040F00400E064E06C259500F004002890B1
:109590004FF44060CDE923060720CDE9267023A9CA
:1095A0000648FEF79BFF29B0F0BD00000080004098
:1095B0000010024000180048004800400008004821
:1095C0002DE9F8430446806F1F4616460D462028B5
:1095D0004FD1CDB1C6B194F87400012849D0012013
:1095E00084F874004FF00008C4F880802120A06740
:1095F000FFF7A4F8A4F850608146A4F85260A06870
:10960000B0F5805F03D004E00120BDE8F883206955
:1096100028B12E465FF0000584F8748010E0002623
:10962000FAE78021204600F04FFCB8B9C6B116F821
:10963000010B21680885B4F85200401EA4F85200BE
:10964000B4F852004B464FF0000200970028E8D1D2
:109650004FF04001204600F037FC30B10320D4E742
:1096600035F8020BC0F30800E3E72020A0670020D4
:10967000CBE70220C9E7FEE72DE9F04F87B01421C0
:109680006846FEF799FE4D48C16C41F00401C16483
:10969000C16C01F004010591C16C41F08001C1640D
:1096A000C16C01F080010591C16C41F00101C16400
:1096B000C16C01F001010591C16C41F00201C1646E
:1096C000C16C01F002010591C16C41F04001C1641F
:1096D000C06C00F040000590FFF7FAF84FF0904B97
:1096E000002220215846FFF724F8DFF8D4804FF4F9
:1096F0008146002231464046FFF71BF8DFF8C49050
:109700004FF43157002239464846FFF712F8DFF888
:10971000B8A0002280215046FFF70BF84FF400500C
:1097200000904FF488100024CDE9010469465046AA
:10973000FEF7D4FE202000900125CDE901546946B2
:1097400058460394FEF7CAFE0096CDE901546946D7
:1097500040460394FEF7C2FEB010CDE9000469460E
:1097600048460294FEF7BAFE0097CDE901546946D7
:1097700048460394FEF7B2FE80200090CDE90154E4
:10978000694650460394FEF7A9FE4FF4E850009056
:109790000220CDE90104032003900A2004906946C9
:1097A0005846FEF79BFE002211462820FFF72AF8B4
:1097B0002820FFF719F807B000F008B800100240A1
:1097C00000040048001800480008004830BCBDE80C
:1097D000C08F00000C4810B50A4901604FF4E13118
:1097E0004160002181600C22C160C0E904128161E6
:1097F000C16101624162FFF741FE002801D072B6EB
:10980000FEE710BD00480040B4000020FEE7FEE780
:10981000704700002DE9F041444C05468846E06859
:109820000026810728680DD0E16801F0030181421C
:1098300016D1A8B1E0686968C0F30210401C8842E4
:109840000ED120E0012804D0022805D0032807D13A
:1098500008E02168890701E021684905002907DB44
:1098600001265FE02168890302D421684903F5E7F6
:10987000E1686A686FF00F0321F0730103EB0212D5
:1098800011430143E160206820F080602060FEF712
:1098900055FF074605E000BFFEF750FFC01B02283A
:1098A00037D820680001F7D4B8F1000F18D0B8F10C
:1098B000010F1DD0287D4FF07E41400801EB406034
:1098C000A96840EA01202169194A11400843206132
:1098D000206840F080602060FEF730FF07461AE005
:1098E000A868297B000240EAC1602169114AECE7BF
:1098F000288A1149400801EB4050A96840EA01203C
:1099000021690E4AE1E700BFFEF718FFC01B0228DD
:1099100001D9032606E020680001F5D52069A96970
:10992000084320613046BDE8F0810000001002408D
:10993000FF80FFF9FF80FF070000E0FFFF809FFF2F
:109940002DE9F0413D4C06468846E0680025810738
:1099500030680DD0E16801F00301814216D1A8B151
:10996000E0687168C0F30210401C88420ED120E00C
:10997000012804D0022805D0032807D108E0216877
:10998000890701E021684905002907DB012551E02D
:109990002168890302D421684903F5E7E168726808
:1099A0006FF00F0321F0730103EB02121143014327
:1099B000E160206820F080502060FEF7BFFE07467F
:1099C00005E000BFFEF7BAFEC01B022829D82068B8
:1099D0008000F7D4B8F1000F15D0307C4FF07E41F5
:1099E000400801EB4060B16840EA01206169144A17
:1099F000114008436061206840F080502060FEF70D
:109A00009DFE07460FE0B068317B000240EAC1606E
:109A100061690C4AECE700BFFEF790FEC01B02280C
:109A200001D9032506E020688000F5D560697169D9
:109A3000084360612846BDE8F08100000010024044
:109A4000FF80FFF9FF80FF07F8B51C4D0646002494
:109A5000A86DC00002D5FEF743FF0DE0A86D40F0F1
:109A60008050A865A86D00F080500090FEF738FF88
:109A7000A96D21F08051A965B0F5007F04D0802E3A
:109A800007D94FF003040AE0802E08D9A02E01D890
:109A900004E001D1022402E0702E00D10124084824
:109AA000016821F0070121430160006800F0070010
:109AB000A04201D00120F8BD0020F8BD00100240F6
:109AC000002002407047FEF73FBE00B597B044212A
:109AD0006846FEF771FC142111A8FEF76DFC4FF4E7
:109AE0000070FEF7C1FE08B172B6FEE70220C101A8
:109AF00003914021009004910BAB0A90042146226F
:109B000083E807000E90CDE90F016846FFF7EEF9F4
:109B100008B172B6FEE70F2011900320129080204A
:109B20001390C000149000201590022111A8FFF797
:109B3000C5F8002801D072B6FEE717B000BD0000DE
:109B400005490448086004488030016841F4700108
:109B5000016070470080000808ED00E090F82410D4
:109B6000C90706D001684A68836A22F400321A43A2
:109B70004A6090F82410890706D501684A68C36ACC
:109B800022F480321A434A6090F82410490706D51F
:109B900001684A68036B22F480221A434A6090F8F5
:109BA0002410090706D501684A68436B22F4004275
:109BB0001A434A6090F82410C90606D501688A68DD
:109BC000836B22F480521A438A6090F8241089062D
:109BD00006D501688A68C36B22F400521A438A6072
:109BE00090F82410490611D501684A68036C22F4E4
:109BF00080121A434A60016CB1F5801F06D10168DA
:109C00004A68436C22F4C0021A434A6090F8241058
:109C1000090606D501684A68806C22F400220243D6
:109C20004A607047F8B500260446C0F88060FEF729
:109C300085FD0546206800686FF07E47000708D55F
:109C40002B4600224FF400112046009700F03CF90B
:109C500060B92068006840070AD52B4600224FF4FF
:109C600080012046009700F02FF908B10320F8BDCD
:109C70002020A067E067266684F874600020F8BDA5
:109C80002DE9F0410446016880682269E3691043C8
:109C9000626900251A431043814F0A68814B1A40BC
:109CA00002430A6020684168E26821F44051114390
:109CB00041602168A069B94201D0226A10438A68D4
:109CC00022F4306202438A607749226877488A42E8
:109CD0000DD1D0F8880010F0030006D0012866D01E
:109CE000022854D0032851D163E001204FE070498D
:109CF0008A420BD1D0F8880010F00C0047D004281D
:109D000045D0082851D00C2840D152E069498A42F8
:109D10000BD1D0F8880010F0300038D0102846D091
:109D2000202842D0302831D143E063498A420BD108
:109D3000D0F8880010F0C00029D0402837D0802803
:109D400033D0C02822D134E05C498A420ED1D0F809
:109D5000880010F440701AD0B0F5807F27D0B0F59D
:109D6000007F22D0B0F5407F10D122E0BA420DD161
:109D7000D0F8880010F4406009D0B0F5806F16D09C
:109D8000B0F5006F11D0B0F5406F12D010204C49E3
:109D900000264FF40043BA422ED160B102280DD004
:109DA00004280DD008286FD10EE00220EFE7042030
:109DB000EDE70820EBE7FFF723F803E00B4603E0AD
:109DC000FFF742F8030060D0626802EB420098425D
:109DD0005AD8B3EB023F57D8190E1B025008181877
:109DE00071410023FEF752FA364AA0F540719142C4
:109DF0004AD82168C86048E0E2694FF6EF779A4296
:109E000027D1092840D2DFE800F005080D3F213FA7
:109E10003F3F0E00FEF7F4FF01E0FFF703F80300F9
:109E200001D132E00B466068590001EB5001B1FBF3
:109E3000F0F0A0F11001B94226D84FF6F0710140C0
:109E4000C0F3420001432068C1601EE0FEF7FCFF42
:109E5000E5E7092818D2DFE800F005080D171D17FF
:109E600017170E00FEF7CCFF01E0FEF7DBFF030043
:109E700001D10AE00B46606803EB5001B1FBF0F042
:109E8000A0F11001B94208D9012566662846A666E8
:109E9000BDE8F081FEF7D8FFE9E780B2A9E700004E
:109EA00000800040F369FFEF0038014000100240DD
:109EB0000044004000480040004C0040005000407A
:109EC0000024F400FFFC0F002DE9F0479A461746E6
:109ED0000E4604464FF000094FF02008089D4AE066
:109EE000681C48D0FEF72AFCA0EB0A00A8422AD83A
:109EF0004DB32068016849073DD5C069C0430005DE
:109F000039D421684FF400600862206850E8001FCF
:109F100021F4D07140E80012002AF6D12068083000
:109F200050E8001F21F0010140E80012002AF5D19D
:109F3000C4F87880C4F87C80C4F8808084F8749079
:109F40000320BDE8F087216851E8000F20F4D070AD
:109F500041E80002002AF6D12068083050E8001FCE
:109F600021F0010140E80012002AF5D1C4F8788000
:109F7000C4F87C80E2E72068C06936EA000004D0BB
:109F80000020B842ACD00020DBE70120F9E7FEE773
:109F90000907090E002804DB00F1E02080F8001416
:109FA000704700F00F0000F1E02080F8141D7047AA
:109FB000FEF7D2FBFFF789FDFFF75EFB1648154958
:109FC0000C2201604FF4E131416000218160C160E9
:109FD000C0E90412816101624162FFF74FFA08B1E2
:109FE00072B6FEE7FFF7F6FB4FF0FF350B48FEF7C2
:109FF000C4F982B208482B4608498430FFF7E0FADA
:10A00000FEF79CFB00F57A74FEF798FBA042FBD9A3
:10A01000ECE700000080004030000020000000203D
:10A020004FF04070E1EE100A7047000000000000A1
:10A03000000000000102030406070809A0860100D1
:10A04000400D0300801A060000350C0040420F004E
:10A0500080841E0000093D0000127A000024F400F4
:10A0600000366E010048E801006CDC0200000000D0
:10A070000102030494A0000800000020300000004A
:10A08000E8810008C4A00008300000206807000034
:10A090000482000848656C6C6F2066726F6D2055F5
:10A0A000736572204170706C69636174696F6E0DC5
:10A0B0000A00000001000000100000000000000085
:04A0C00000093D0056
:04000005080081ADC1
:00000001FF
